{
  "contractName": "Voting",
  "abi": [
    {
      "constant": true,
      "inputs": [
        {
          "name": "",
          "type": "bytes32"
        }
      ],
      "name": "votesReceived",
      "outputs": [
        {
          "name": "",
          "type": "uint8"
        }
      ],
      "payable": false,
      "stateMutability": "view",
      "type": "function"
    },
    {
      "constant": true,
      "inputs": [
        {
          "name": "",
          "type": "uint256"
        }
      ],
      "name": "candidateList",
      "outputs": [
        {
          "name": "",
          "type": "bytes32"
        }
      ],
      "payable": false,
      "stateMutability": "view",
      "type": "function"
    },
    {
      "inputs": [
        {
          "name": "candidateNames",
          "type": "bytes32[]"
        }
      ],
      "payable": false,
      "stateMutability": "nonpayable",
      "type": "constructor"
    },
    {
      "constant": false,
      "inputs": [
        {
          "name": "candidate",
          "type": "bytes32"
        }
      ],
      "name": "totalVotesFor",
      "outputs": [
        {
          "name": "",
          "type": "uint8"
        }
      ],
      "payable": false,
      "stateMutability": "nonpayable",
      "type": "function"
    },
    {
      "constant": false,
      "inputs": [
        {
          "name": "candidate",
          "type": "bytes32"
        }
      ],
      "name": "voteForCandidate",
      "outputs": [],
      "payable": false,
      "stateMutability": "nonpayable",
      "type": "function"
    },
    {
      "constant": false,
      "inputs": [
        {
          "name": "candidate",
          "type": "bytes32"
        }
      ],
      "name": "validCandidate",
      "outputs": [
        {
          "name": "",
          "type": "bool"
        }
      ],
      "payable": false,
      "stateMutability": "nonpayable",
      "type": "function"
    }
  ],
  "bytecode": "0x6060604052341561000f57600080fd5b6040516103e53803806103e5833981016040528080518201919050508060019080519060200190610041929190610048565b50506100c0565b82805482825590600052602060002090810192821561008a579160200282015b82811115610089578251829060001916905591602001919060010190610068565b5b509050610097919061009b565b5090565b6100bd91905b808211156100b95760008160009055506001016100a1565b5090565b90565b610316806100cf6000396000f30060606040526004361061006d576000357c0100000000000000000000000000000000000000000000000000000000900463ffffffff1680632f265cf714610072578063392e6678146100b35780637021939f146100f2578063b13c744b14610133578063cc9ab26714610172575b600080fd5b341561007d57600080fd5b610097600480803560001916906020019091905050610199565b604051808260ff1660ff16815260200191505060405180910390f35b34156100be57600080fd5b6100d86004808035600019169060200190919050506101e3565b604051808215151515815260200191505060405180910390f35b34156100fd57600080fd5b610117600480803560001916906020019091905050610243565b604051808260ff1660ff16815260200191505060405180910390f35b341561013e57600080fd5b6101546004808035906020019091905050610263565b60405180826000191660001916815260200191505060405180910390f35b341561017d57600080fd5b610197600480803560001916906020019091905050610287565b005b60008015156101a7836101e3565b151514156101b457600080fd5b600080836000191660001916815260200190815260200160002060009054906101000a900460ff169050919050565b600080600090505b60018054905081101561023857826000191660018281548110151561020c57fe5b90600052602060002090015460001916141561022b576001915061023d565b80806001019150506101eb565b600091505b50919050565b60006020528060005260406000206000915054906101000a900460ff1681565b60018181548110151561027257fe5b90600052602060002090016000915090505481565b60001515610294826101e3565b151514156102a157600080fd5b6001600080836000191660001916815260200190815260200160002060008282829054906101000a900460ff160192506101000a81548160ff021916908360ff160217905550505600a165627a7a723058208462676baa5abdd62e45535053d79f90980cdae5420c6da9021edf9a5913c9ae0029",
  "source": "pragma solidity ^0.4.19;\r\n\r\n\r\ncontract Voting {\r\n \r\n  \r\n  mapping (bytes32 => uint8) public votesReceived;\r\n  bytes32[] public candidateList;\r\n  \r\n  function Voting(bytes32[] candidateNames) public{\r\n    candidateList = candidateNames;\r\n  }\r\n\r\n\r\n\r\n  \r\n function totalVotesFor(bytes32 candidate)public returns (uint8) {\r\n    if (validCandidate(candidate) == false) revert();\r\n    return votesReceived[candidate];\r\n  }\r\n\r\n  \r\n function voteForCandidate(bytes32 candidate) public{\r\n    if (validCandidate(candidate) == false) revert();\r\n    votesReceived[candidate] += 1;\r\n  }\r\n\r\n function validCandidate(bytes32 candidate)public returns (bool) {\r\n    for(uint i = 0; i < candidateList.length; i++) {\r\n      if (candidateList[i] == candidate) {\r\n        return true;\r\n      }\r\n    }\r\n    return false;\r\n  }\r\n}",
  "sourcePath": "F:\\Geth\\VOTE\\contracts\\Voting.sol",
  "compiler": {
    "name": "solc",
    "version": "0.4.19+commit.c4cbbb05.Emscripten.clang"
  },
  "schemaVersion": "2.0.0",
  "updatedAt": "2018-03-08T15:32:16.461Z"
}